:100000000C9459010C948A010C948A010C948A0175
:100010000C948A010C948A010C948A010C948A0134
:100020000C948A010C948A010C948A010C948A0124
:100030000C948A010C948A010C948A010C948A0114
:100040000C948A010C948A010C948A010C948A0104
:100050000C948A010C948A010C948A010C94D208A5
:100060000C948A010C9446090C941C090C948A0186
:100070000C948A010C948A010C948A010C948A01D4
:100080000C948A010C948A010C948A010C948A01C4
:100090000C948A010C948A010C948A010C948A01B4
:1000A0000C948A010C948A010C948A010C948A01A4
:1000B0000C948A010C948A010C948A010C948A0194
:1000C0000C948A010C948A010C948A010C948A0184
:1000D0000C948A010C948A010C948A010C948A0174
:1000E0000C948A010C94CB020C94D4010C94D00192
:1000F0000C94680A0C94B1010C94E2010C94A802CF
:100100000C94F0010C94AB010C94C0010C94EC0124
:100110000C94B7020C94C6010C9411030C94D902F0
:100120000C94B5010C94E6010C94D8010C94B9011F
:100130000C94DE010C94CA010C945E030C947302BF
:100140000C94BD010C94EB01CDCCCC3D0AD7233CE3
:1001500017B7D13877CC2B329595E6241FB14F0ACB
:100160000000803FCDCCCC3D6F12833A95BFD63393
:100170007D1D9026B3CE010C000020410000C84236
:1001800000401C4620BCBE4CCA1B0E5AAEC59D7416
:1001900000002200250028002B002E003100340032
:1001A00002010000050108010B01000021002400EC
:1001B00027002A002D003000330001010000040157
:1001C00007010A01000020002300260029002C005E
:1001D0002F0032000001000003010601090105059E
:1001E0000505070508080808020202020A0A0808AD
:1001F00004040404010101010101010103030303DB
:1002000003030303040707070C0C0C0C0C0C0C0C69
:100210000202020206060606060606060B0B0B0B7A
:100220000B0B0B0B0102102020080810204010209F
:1002300040800201020108040201010204081020AA
:1002400040808040201008040201800402018040A8
:100250002010080402010804020101020408102011
:100260004080010204081020408000000A0B0209AF
:100270000C0D0E0807030401000000000000000040
:10028000000000000000000000000000000000006E
:10029000000000000000121110000000000000002B
:1002A000000000000000000000000000000000004E
:1002B000680A11241FBECFEFD1E2DEBFCDBF00E040
:1002C0000CBF23E0A8E5B2E001C01D92A030B20748
:1002D000E1F712E0A0E0B2E0E6E4F9E100E00BBFF4
:1002E00002C007900D92A835B107D9F711E0C9E512
:1002F000D1E000E006C021970109802FFE010E9495
:10030000EF0BC835D10780E00807A9F70E947C09E8
:100310000C94A10C0C94000008958150823108F0D7
:100320005AC0E82FF0E08827E756FE4F8F4F0C9415
:10033000EF0BB901BD01AB01B101B501EB01C0018A
:10034000C601CA01D001D401D801DE01E201EB01EE
:10035000E601EC01F001809180008F7780938000AE
:100360000895809180008F7DF9CF80918000877FF4
:10037000F5CF84B58F7784BD089584B58F7DFBCF8D
:100380008091B0008F778093B00008958091B00085
:100390008F7DF9CF809190008F77809390000895A2
:1003A000809190008F7DF9CF80919000877FF5CF6D
:1003B0008091A0008F778093A00008958091A00085
:1003C0008F7DF9CF8091A000877FF5CF80912001AC
:1003D0008F77809320010895809120018F7DF9CF40
:1003E00080912001877FF5CFCF93DF93282F30E0D6
:1003F000F901E659FD4F8491F901EC5DFD4FD4916F
:10040000F901E252FE4FC491CC23A1F081110E9468
:100410008D01EC2FF0E0EE0FFF1FEC53FE4FA59186
:10042000B491EC91ED2381E090E009F480E0DF915C
:10043000CF91089580E090E0FACFCF93DF9390E0E2
:10044000FC01EC5DFD4F249182529E4FFC01849192
:100450008823D1F090E0880F991FFC01E655FE4FEC
:10046000A591B491FC01E057FE4FC591D491611163
:100470000EC09FB7F8948C91E22FE0958E238C9359
:100480002881E223E8839FBFDF91CF9108958FB742
:10049000F894EC91E22BEC938FBFF6CF3FB7F89432
:1004A00080915F0290916002A0916102B09162021E
:1004B00026B5A89B05C02F3F19F00196A11DB11DBF
:1004C0003FBFBA2FA92F982F8827BC01CD01620FFB
:1004D000711D811D911D42E0660F771F881F991FB6
:1004E0004A95D1F70895AF92BF92CF92DF92EF92E3
:1004F000FF920F931F93CF93DF936C017B018B01CE
:10050000040F151FEB015E01AE18BF08C017D1071D
:1005100059F06991D601ED91FC910190F081E02DA7
:10052000C6011995892B79F7C501DF91CF911F91EC
:100530000F91FF90EF90DF90CF90BF90AF90089514
:1005400042E050E066E272E083E692E00C947302CF
:10055000FC01538D448D252F30E0842F90E0821BC9
:10056000930B541710F0CF96089501970895FC014E
:10057000918D828D981761F0A28DAE0FBF2FB11DA6
:100580005D968C91928D9F5F9F73928F90E00895FE
:100590008FEF9FEF0895FC01918D828D981731F0B8
:1005A000828DE80FF11D858D90E008958FEF9FEF0C
:1005B0000895FC01918D228D892F90E0805C9F4FE2
:1005C000821B91098F739927089583E692E00E9418
:1005D000D90221E0892B09F420E0822F0895FC0143
:1005E000A48DA80FB92FB11DA35ABF4F2C91848D94
:1005F00090E001968F739927848FA689B7892C93F1
:10060000A089B1898C91837080648C93938D848D43
:10061000981306C00288F389E02D80818F7D808346
:100620000895EF92FF920F931F93CF93DF93EC0106
:1006300081E0888F9B8D8C8D98131AC0E889F98989
:10064000808185FF15C09FB7F894EE89FF8960838C
:10065000E889F98980818370806480839FBF81E00D
:1006600090E0DF91CF911F910F91FF90EF9008954F
:10067000F62E0B8D10E00F5F1F4F0F731127E02E2A
:100680008C8D8E110CC00FB607FCFACFE889F98962
:10069000808185FFF5CFCE010E94EF02F1CFEB8D77
:1006A000EC0FFD2FF11DE35AFF4FF0829FB7F89436
:1006B0000B8FEA89FB8980818062CFCFCF93DF9354
:1006C000EC01888D8823B9F0AA89BB89E889F9896A
:1006D0008C9185FD03C0808186FD0DC00FB607FC9F
:1006E000F7CF8C9185FFF2CF808185FFEDCFCE01D2
:1006F0000E94EF02E9CFDF91CF91089581E08093CE
:10070000590208950E94E502882319F081E0809340
:10071000590280E090E0892B49F080E090E0892B3D
:1007200029F00E94000081110E94000080E090E00A
:10073000892B49F080E090E0892B29F00E9400008D
:1007400081110E94000080E090E0892B49F080E058
:1007500090E0892B29F00E94000081110C94000088
:100760000895CF93DF93EC0188819981DC01ED91AD
:10077000FC910190F081E02D19952A813B81820F37
:10078000931F9B838A83DF91CF910895CF93DF934B
:10079000EC0188819981DC01ED91FC910280F3816B
:1007A000E02D19952A813B81820F931F9B838A83B9
:1007B000DF91CF9108958F929F92AF92BF92CF9287
:1007C000DF92EF92FF920F931F93CF93DF93CDB7FA
:1007D000DEB766970FB6F894DEBF0FBECDBF6C01D3
:1007E0008E01095E1F4F78018AE0882E912CA12C82
:1007F000B12CCB01BA01A50194010E94CD0B942F1D
:10080000852F605DF80162938F01A901692F782F10
:10081000411551056105710561F7A7014E1B5F0B7D
:10082000BF01C6010E94C60366960FB6F894DEBFEC
:100830000FBECDBFDF91CF911F910F91FF90EF9031
:10084000DF90CF90BF90AF909F908F900895DC0184
:10085000ED91FC911197309769F0948190789A60AE
:100860009483462F660F550B660B770B408351839D
:10087000628373831296ED91FC91309721F080850D
:1008800091E08927089580E00895FC0125812223C5
:1008900039F0F8E02F0290011124820F931F089580
:1008A00090E080E00895CF92DF92EF92FF920F9355
:1008B0001F93CF93DF93FC018481982F9F7739F4A6
:1008C00080788062848311821082138212828481F4
:1008D00085FD0BC080E090E0DF91CF911F910F91DB
:1008E000FF90EF90DF90CF9008956115710591F31F
:1008F000EA017B016F01008111810115110589F168
:10090000D80116966D917C91C7010E94980C892B95
:1009100031F1C8010E9445048C01EFCF3897FD8367
:10092000EC833097B9F2E601AA81BB81109791F070
:10093000CF018A1B9B0B23E0959587952A95E1F7BC
:1009400015968C93FB83EA8315821482F782E682E4
:10095000CF01C2CFF983E883FB83EA83F5CFC801D7
:10096000BBCFEC81FD818A819B810896E817F9074E
:10097000A8F681E08887AECFFB0101900020E9F75F
:100980003197AF01461B570B0C94C6031F93CF93AF
:10099000DF93E9E2F2E01281112379F032962181AE
:1009A0006213F9CFEC016CE50E94B103612FCE0117
:1009B000DF91CF911F910C94B1036111F9CF6AE3DC
:1009C00072E0DF91CF911F910C94BC042F923F9263
:1009D0004F925F926F927F928F929F92AF92BF924F
:1009E000CF92DF92EF92FF920F931F93CF93DF93FB
:1009F000CDB7DEB76C970FB6F894DEBF0FBECDBF94
:100A00008C011B01DC0114968C9114978F77863032
:100A100009F492C268F58230A0F11296ED90FC9034
:100A20001397CC901196DC90843008F056C2A70141
:100A3000B601C1010E94C603F101828193816C96C7
:100A40000FB6F894DEBF0FBECDBFDF91CF911F91DF
:100A50000F91FF90EF90DF90CF90BF90AF909F905D
:100A60008F907F906F905F904F903F902F90089560
:100A70008C3069F160F4883009F459C28A3009F485
:100A80003FC261E472E0C1010E94BC04E5C1803252
:100A900009F4ECC18034A9F76BE5C1010E94B103F0
:100AA000F801008111810115110509F4DAC1B101C4
:100AB000C8010E94E604C8010E9445048C01892BEC
:100AC00009F4CFC16CE2C1010E94B103ECCFF8017F
:100AD000C080D180E280F380A7019601C701B601F2
:100AE0000E94950A8111CDCF20E030E0A901C70115
:100AF000B6010E94950A882379F0A7019601C701E3
:100B0000B6010E94F80B9B01AC01C701B6010E941F
:100B1000950A882309F4B5CF20E030E0A901C70188
:100B2000B6010E94950A87FF08C06DE2C1010E94CC
:100B3000B103F7FAF094F7F8F09420E836E948E1C9
:100B40005BE4C701B6010E94930C87FD81C074E18C
:100B5000A72EB12C00E210E0188E1F8AF501E8588C
:100B6000FE4F2591359145915491C701B6010E94E0
:100B7000930C87FD13C0F501E85BFE4F259135917D
:100B800045915491C701B6010E94FB0A6B017C019B
:100B90002F89388D200F311F388F2F8B1595079592
:100BA00034E0A31AB1088CEFA8168FEFB806B1F69F
:100BB00055245A9420E030E0A901C701B6010E94F3
:100BC000930C18160CF04BC02CEA35EC47E257E3B7
:100BD000C701B6010E94950A18160CF440C0A52D55
:100BE000B4E0AB02C0011124B12CA12CFC01E05AED
:100BF000FE4F3F019C0128583E4F49013FEF5316DD
:100C000071F1F301EA0DFB1D259135914591549148
:100C1000C701B6010E94950A87FF13C0F401EA0DCF
:100C2000FB1D2591359145915491C701B6010E9454
:100C3000FB0A6B017C018F89988D801B910B988F2B
:100C40008F8B159507955A9494E0A91AB108D6CFC1
:100C500000E210E055E0552E188E1F8AABCFC70179
:100C6000B6010E94640C4B015C012B013C0106E0C3
:100C700080E492E4AFE0B0E0898F9A8FAB8FBC8FB5
:100C8000102F01509AE04916510461047104C8F014
:100C9000698D7A8D8B8D9C8D2AE030E040E050E0AC
:100CA0000E94CD0B298F3A8F4B8F5C8FC301B2010D
:100CB0002AE030E040E050E00E94CD0B29013A01EB
:100CC000DFCFC501B4010E949A0A9B01AC01C701A4
:100CD000B6010E94F70B6B017C01698D7A8D8B8DBB
:100CE0009C8D0E949A0A9B01AC01C701B6010E942B
:100CF000FB0A2B013C010E94640C6B017C010E94E9
:100D00009A0A9B01AC01C301B2010E94F70B9B013F
:100D1000AC010E94F80B0E94640CC60ED71EE81EA0
:100D2000F91E898D9A8DAB8DBC8DC816D906EA0641
:100D3000FB06D8F09FEF891A990AA90AB90AAF8968
:100D4000B88DAB2B39F1BAE08B169104A104B10434
:100D500008F1EF89F88D3196F88FEF8BC12CD12CEB
:100D60007601812C912C540183942AE0422E512C3F
:100D7000612C712CC701B601A30192010E94CD0B19
:100D8000672B682B692B51F4111644F469017A0121
:100D90001150F0CFC12CD12C7601E7CFB501A401C1
:100DA000C1010E94DB03112371F14E01F1E18F0EAD
:100DB000911C012F54019AE0492E512C612C712C69
:100DC000015068F0C701B601A30192010E94CD0B4A
:100DD000605DD4016E934D0169017A01F1CF812FDD
:100DE00090E0BC0160957095F501E81BF90B319717
:100DF0008EE2808344275527461B570B6A0D7B1DC7
:100E0000C1010E94C603EF89F88DEF2B29F165E639
:100E1000C1010E94B1030F89188D17FF07C06DE251
:100E2000C1010E94B103119501951109FE01779648
:100E30009F018AE0E82EF12CC801B7010E94B90B8E
:100E4000805D82938B01672BB9F7A9014E1B5F0B65
:100E5000BF01C1010E94C603D10112968D919C91E0
:100E6000EECD6DE5C1010E94B103F6CF6BE7C10184
:100E70000E94B103F801008111810115110559F19A
:100E8000D8011696CC9016971796DC9062E2C101B5
:100E90000E94B1037601F70161917F01662321F081
:100EA000C1010E94C604F7CF62E2C1010E94B103F2
:100EB0006AE3C1010E94B103B101C8010E94E604C6
:100EC000C8010E9445048C01892B29F06CE2C10104
:100ED0000E94B103D2CF6DE7C5CF62E2C1010E948B
:100EE000B1038601E00EF11EE016F10639F0F801BB
:100EF00061918F01C1010E94C604F6CF62E2B2CFB8
:100F0000CD90DD90ED90FC90B701A601F7FE0BC0EF
:100F10006DE2C1010E94B10344275527BA014C1963
:100F20005D096E097F09C1010E94DB0385CD4D91EA
:100F30005D916D917C91F7CF8C9166E472E08111A7
:100F400002C06BE472E0C1010E94BC0475CDCF9376
:100F5000DF9300D01F92CDB7DEB723E632E03A83AD
:100F600029831C821B82BE016F5F7F4F09960E94FE
:100F7000E6040F900F900F900F90DF91CF9108959E
:100F80008F929F92AF92BF92CF92DF92EF92FF9299
:100F90000F931F93CF93DF93CDB7DEB7C650D240E8
:100FA0000FB6F894DEBF0FBECDBFCE010F969A8369
:100FB00089839C838B8383E092E08C0F9D1F9E83AB
:100FC0008D8398878F8319861E8683E30E94F401A0
:100FD000892B09F05EC083E30E94F401892BD9F3C9
:100FE0008E010F5F1F4FA80161E572E0CE010A96E6
:100FF0000E945304CD5FDD4F99838883C350D24054
:10100000CB5FDD4F19830883C550D24061E5CE0127
:101010008D5F9D4F0E942704C8010E94A7070E9470
:10102000A0020E944E024B015C018AE0C82ED12C26
:10103000E12CF12C0E944E02681979098A099B095A
:10104000683E734081059105A8F391E0C91AD10863
:10105000E108F10828EE820E23E0921EA11CB11CCB
:10106000C114D104E104F10429F7CA5FDD4F0FB6C2
:10107000F894DEBF0FBECDBFDF91CF911F910F91CE
:10108000FF90EF90DF90CF90BF90AF909F908F90A8
:1010900008958DE10E94F401892BE9F48DE10E940D
:1010A000F401892BD9F38E010F5F1F4FA80161E571
:1010B00072E0CE010A960E945304CD5FDD4F998302
:1010C0008883C350D240CB5FDD4F19830883C5505E
:1010D000D24067E59CCF8BE10E94F401892BE9F4B3
:1010E0008BE10E94F401892BD9F38E010F5F1F4F12
:1010F000A80161E572E0CE010A960E945304CD5F1B
:10110000DD4F99838883C350D240CB5FDD4F198375
:101110000883C550D24061E47ACF87E10E94F40190
:10112000892BE9F487E10E94F401892BD9F38E0120
:101130000F5F1F4FA80161E572E0CE010A960E9481
:101140005304CD5FDD4F99838883C350D240CB5F7A
:10115000DD4F19830883C550D24063E558CF89E13C
:101160000E94F401892B09F05CCF89E10E94F4010F
:10117000892BD9F38E010F5F1F4FA80161E572E043
:10118000CE010A960E945304CD5FDD4F9983888378
:10119000C350D240CB5FDD4F19830883C550D24086
:1011A00064E435CF1F920F920FB60F9211242F9344
:1011B0003F938F939F93AF93BF9380915B029091E6
:1011C0005C02A0915D02B0915E0230915A0223E070
:1011D000230F2D3758F50196A11DB11D20935A02FA
:1011E00080935B0290935C02A0935D02B0935E02D9
:1011F00080915F0290916002A0916102B0916202C1
:101200000196A11DB11D80935F0290936002A0938F
:101210006102B0936202BF91AF919F918F913F9114
:101220002F910F900FBE0F901F90189526E8230F57
:101230000296A11DB11DD2CF1F920F920FB60F9231
:1012400011240BB60F922F933F934F935F936F939D
:101250007F938F939F93AF93BF93EF93FF9383E617
:1012600092E00E94EF02FF91EF91BF91AF919F91A9
:101270008F917F916F915F914F913F912F910F903F
:101280000BBE0F900FBE0F901F9018951F920F92DC
:101290000FB60F9211240BB60F922F938F939F933B
:1012A000EF93FF93E0917302F09174028081E091DB
:1012B0007902F0917A0282FD1DC0908180917C02BA
:1012C0008F5F8F7320917D02821741F0E0917C0245
:1012D000F0E0ED59FD4F958F80937C02FF91EF91E7
:1012E0009F918F912F910F900BBE0F900FBE0F907B
:1012F0001F9018958081F2CF789484B5826084BD68
:1013000084B5816084BD85B5826085BD85B5816009
:1013100085BD80916E00816080936E001092810087
:101320008091810082608093810080918100816042
:101330008093810080918000816080938000809103
:10134000B10084608093B1008091B000816080938F
:10135000B000809191008260809391008091910013
:1013600081608093910080919000816080939000D3
:101370008091A10082608093A1008091A100816092
:101380008093A1008091A00081608093A000809153
:1013900021018260809321018091210181608093ED
:1013A00021018091200181608093200180917A0049
:1013B000846080937A0080917A00826080937A00C2
:1013C00080917A00816080937A0080917A008068B1
:1013D00080937A001092C100E0917302F091740240
:1013E00082E08083E0916F02F09170021082E091C0
:1013F0007102F09172028FEC808310927B02E09177
:101400007702F091780286E08083E0917502F09196
:101410007602808180618083E0917502F09176028E
:10142000808188608083E0917502F09176028081EE
:1014300080688083E0917502F091760280818F7DD3
:10144000808361E085E20E941D02EFE8F2E0849172
:10145000E9E4F2E0D491E3E0F2E0C491CC2399F026
:1014600081110E948D01EC2FF0E0EE0FFF1FE0577D
:10147000FE4FA591B4918FB7F8949C91ED2FE09514
:10148000E923EC938FBF60E083E30E941D0260E0DC
:101490008DE10E941D0260E08BE10E941D0260E070
:1014A00087E10E941D0260E089E10E941D02C2E105
:1014B000D2E006E212E08881229661E00E941D02DD
:1014C0000C171D07C1F70E94C0070E948203FBCFC3
:1014D000E3E6F2E01382128288EE93E0A0E0B0E04F
:1014E00084839583A683B78384E092E0918380838D
:1014F00085EC90E09587848784EC90E097878687D9
:1015000080EC90E0918B808B81EC90E0938B828BD0
:1015100082EC90E0958B848B86EC90E0978B868BA9
:10152000118E128E138E148E08950E94D70A08F41D
:1015300081E00895E89409C097FB3EF4909580956A
:10154000709561957F4F8F4F9F4F9923A9F0F92F89
:1015500096E9BB279395F695879577956795B79507
:10156000F111F8CFFAF4BB0F11F460FF1BC06F5FED
:101570007F4F8F4F9F4F16C0882311F096E911C0FF
:10158000772321F09EE8872F762F05C0662371F020
:1015900096E8862F70E060E02AF09A95660F771F34
:1015A000881FDAF7880F9695879597F90895990F10
:1015B0000008550FAA0BE0E8FEEF16161706E8071D
:1015C000F907C0F012161306E407F50798F0621B3E
:1015D000730B840B950B39F40A2661F0232B242B13
:1015E000252B21F408950A2609F4A140A6958FEF32
:1015F000811D811D08950E940E0B0C947F0B0E948B
:10160000710B38F00E94780B20F0952311F00C94A8
:10161000680B0C946E0B11240C94B30B0E94900B6E
:1016200070F3959FC1F3950F50E0551F629FF00135
:10163000729FBB27F00DB11D639FAA27F00DB11D4E
:10164000AA1F649F6627B00DA11D661F829F2227D7
:10165000B00DA11D621F739FB00DA11D621F839F5E
:10166000A00D611D221F749F3327A00D611D231F34
:10167000849F600D211D822F762F6A2F11249F5782
:1016800050409AF0F1F088234AF0EE0FFF1FBB1F85
:10169000661F771F881F91505040A9F79E3F510544
:1016A00080F00C94680B0C94B30B5F3FE4F3983E0E
:1016B000D4F3869577956795B795F795E7959F5FEE
:1016C000C1F7FE2B880F911D9695879597F9089580
:1016D00097F99F6780E870E060E008959FEF80ECE5
:1016E000089500240A941616170618060906089588
:1016F00000240A9412161306140605060895092EEE
:101700000394000C11F4882352F0BB0F40F4BF2B5C
:1017100011F460FF04C06F5F7F4F8F4F9F4F08959C
:1017200057FD9058440F551F59F05F3F71F0479592
:10173000880F97FB991F61F09F3F79F08795089577
:10174000121613061406551FF2CF4695F1DF08C096
:10175000161617061806991FF1CF869571056105B3
:1017600008940895E894BB2766277727CB0197F95B
:101770000895AA1BBB1B51E107C0AA1FBB1FA617D8
:10178000B70710F0A61BB70B881F991F5A95A9F72A
:1017900080959095BC01CD010895A1E21A2EAA1B57
:1017A000BB1BFD010DC0AA1FBB1FEE1FFF1FA21711
:1017B000B307E407F50720F0A21BB30BE40BF50B0E
:1017C000661F771F881F991F1A9469F76095709597
:1017D000809590959B01AC01BD01CF010895EE0F5E
:1017E000FF1F881F8BBF0790F691E02D199450586A
:1017F000BB27AA270E940F0C0C947F0B0E94710B31
:1018000038F00E94780B20F039F49F3F19F426F449
:101810000C946E0B0EF4E095E7FB0C94680BE92F2B
:101820000E94900B58F3BA17620773078407950755
:1018300020F079F4A6F50C94B20B0EF4E0950B2E83
:10184000BA2FA02D0B01B90190010C01CA01A00112
:101850001124FF27591B99F0593F50F4503E68F16D
:101860001A16F040A22F232F342F4427585FF3CFAE
:10187000469537952795A795F0405395C9F77EF47F
:101880001F16BA0B620B730B840BBAF09150A1F0C8
:10189000FF0FBB1F661F771F881FC2F70EC0BA0F4E
:1018A000621F731F841F48F4879577956795B795D6
:1018B000F7959E3F08F0B0CF9395880F08F09927D1
:1018C000EE0F9795879508950E94980B88F09F5783
:1018D00098F0B92F9927B751B0F0E1F0660F771F54
:1018E000881F991F1AF0BA95C9F714C0B13091F04A
:1018F0000E94B20BB1E008950C94B20B672F782FC1
:101900008827B85F39F0B93FCCF38695779567950E
:10191000B395D9F73EF490958095709561957F4F7A
:101920008F4F9F4F08950E94D70A08F48FEF0895B4
:10193000FB01DC018D91019080190110D9F3990B05
:061940000895F894FFCFAA
:101946000000000011037302A8025E03D902B70269
:10195600CB02020003000400050006000700080091
:1019660009000A000B000D0A002F2F22225C5C6280
:1019760008660C6E0A720D7409005C7530303030E2
:10198600006E756C6C00747275650066616C7365CB
:0819960000626F75746F6E00B2
:00000001FF
